:020000040800F2
:100000000000032071130008091300080B130008F7
:100010000D1300080F130008111300080000000062
:1000200000000000000000000000000013130008A2
:10003000151300080000000017130008191300082A
:10004000C1130008C1130008C1130008C113000840
:10005000C1130008C1130008C1130008C113000830
:10006000C1130008C1130008C1130008C113000820
:10007000C1130008C1130008C1130008C113000810
:10008000C1130008C1130008C1130008C113000800
:10009000C1130008C1130008C1130008C1130008F0
:1000A000C1130008C1130008C1130008C1130008E0
:1000B000C1130008C1130008C1130008C1130008D0
:1000C000C1130008C1130008C1130008C1130008C0
:1000D000C1130008C1130008C1130008C1130008B0
:1000E000C1130008C1130008C1130008C1130008A0
:1000F000C1130008C1130008C1130008C113000890
:10010000C1130008C1130008C1130008C11300087F
:10011000C1130008C1130008C1130008C11300086F
:10012000C1130008C1130008C1130008C11300085F
:10013000C1130008C1130008C1130008C11300084F
:10014000C1130008C1130008C1130008C11300083F
:10015000C1130008C1130008C1130008C11300082F
:10016000C1130008C1130008C1130008C11300081F
:10017000C1130008C1130008C113000800000000EB
:10018000C1130008C1130008C1130008C1130008FF
:10019000C1130008C1130008C1130008C1130008EF
:0C01A000C1130008C1130008C1130008BF
:1001AC0010B5054C237833B9044B13B10448AFF3A5
:1001BC0000800123237010BD0C0000200000000003
:1001CC000C14000808B5034B1BB103490348AFF3EB
:1001DC00008008BD00000000100000200C14000876
:1001EC0053B94AB9002908BF00281CBF4FF0FF3192
:1001FC004FF0FF3000F072B9ADF1080C6DE904CE90
:10020C0000F006F8DDF804E0DDE9022304B07047E5
:10021C002DE9F047089E04468846002B4BD18A42B4
:10022C00154667D9B2FA82F24AB1C2F1200701FA37
:10023C0002F320FA07F7954047EA030894404FEA87
:10024C00154E230CB8FBFEF71FFA85FC0EFB178826
:10025C0043EA084307FB0CF1994209D9EB1807F163
:10026C00FF3080F01B81994240F21881023F2B44F1
:10027C005B1AA4B2B3FBFEF00EFB103344EA03444A
:10028C0000FB0CFCA44509D92C1900F1FF3380F0BC
:10029C000781A44540F2048102382C4440EA07400F
:1002AC00A4EB0C0400271EB1D4400023C6E9004384
:1002BC003946BDE8F0878B4209D9002E00F0EB805F
:1002CC000027C6E9000138463946BDE8F087B3FA85
:1002DC0083F7002F47D18B4202D3824200F2FA807F
:1002EC00841A61EB030301209846002EE0D0C6E986
:1002FC000048DDE702B9FFDEB2FA82F2002A40F0D4
:10030C008F80491B4FEA154E1FFA85F80127B1FB68
:10031C00FEFC230C0EFB1C1143EA014308FB0CF101
:10032C00994207D9EB180CF1FF3002D2994200F236
:10033C00CD808446591AA3B2B1FBFEF00EFB10140B
:10034C0043EA044408FB00F8A04507D92C1900F136
:10035C00FF3302D2A04500F2B6801846A4EB080485
:10036C0040EA0C409FE7C7F1200CBB4022FA0CFE80
:10037C004EEA030E01FA07F420FA0CF521FA0CF3FD
:10038C004FEA1E482543B3FBF8F92C0C08FB193334
:10039C001FFA8EFA44EA034309FB0AF49C4202FA60
:1003AC0007F200FA07F10BD91EEB030309F1FF303A
:1003BC0080F087809C4240F28480A9F1020973444A
:1003CC001B1BADB2B3FBF8F008FB103345EA03443A
:1003DC0000FB0AFAA24508D91EEB040400F1FF3316
:1003EC006BD2A24569D90238744440EA0940A0FB9B
:1003FC000289A4EB0A044C45C2464B4654D351D057
:10040C00002E69D0B1EB0A0564EB030404FA0CFC72
:10041C00FD40FC404CEA0505C6E90054002747E7BF
:10042C00C2F1200320FA03F7954001FA02F021FAF9
:10043C0003F34FEA154E3843010CB3FBFEF71FFADA
:10044C0085F80EFB173341EA034107FB08F38B4297
:10045C0004FA02F407D9691807F1FF3C2FD28B423A
:10046C002DD9023F2944CB1A81B2B3FBFEF00EFB0F
:10047C00103341EA034100FB08F38B4207D969189A
:10048C0000F1FF3C17D28B4215D902382944C91A06
:10049C0040EA07473BE73746304609E70746E7E6B9
:1004AC001846FBE64145ABD2B8EB020A69EB0E02EB
:1004BC0001381346A4E76046E9E7184695E7674616
:1004CC00D1E781467CE702382C4447E7ACF1020CBB
:1004DC002B442FE7384608E73746E9E6704700BF5C
:1004EC0010B504460E4B18784FF47A73B3FBF0F347
:1004FC000C4A1068B0FBF3F000F088F868B90F2CC8
:10050C0001D901200AE0002221464FF0FF3000F013
:10051C0049F8034B5C60002000E0012010BD00BFD7
:10052C00000000200800002008B50B4B1A6842F4AC
:10053C0000721A601A6842F480621A601A6842F4F7
:10054C0080721A60032000F01BF80020FFF7C8FF30
:10055C0000F08AFE002008BD003C0240034A1168EE
:10056C00034B1B780B441360704700BF280000201E
:10057C0000000020014B1868704700BF28000020C5
:10058C00074AD36823F4E0631B041B0C000200F43D
:10059C00E060184340F0BF6040F40030D06070471A
:1005AC0000ED00E030B4174BDB68C3F30223C3F15A
:1005BC000704042C28BF04241D1D062D18D9033B49
:1005CC004FF0FF3505FA04F421EA0401994005FACD
:1005DC0003F322EA0303194300280BDB0901C9B218
:1005EC0000F1604000F5614080F8001330BC7047AA
:1005FC000023E5E700F00F000901C9B2024B1954C2
:10060C00F4E700BF00ED00E014ED00E00138B0F1BC
:10061C00807F0AD2064B5860064AF02182F82310DC
:10062C000020986007221A6070470120704700BFB5
:10063C0010E000E000ED00E0042805D0054A136846
:10064C0023F0040313607047024A136843F0040359
:10065C001360704710E000E0704708B5FFF7FCFF2F
:10066C0008BD000000230F2B00F2E380F0B482B031
:10067C0039E0092200E00022B2403A4302346D4EC8
:10068C0046F824206C4A1468EA4302EA04064F68D0
:10069C0017F4803F01D045EA0406674C2660646875
:1006AC0002EA04064F6817F4003F01D045EA04063D
:1006BC00614C6660A46802EA04064F6817F4801F58
:1006CC0001D045EA04065C4CA660E46822404E6802
:1006DC0016F4001F01D045EA0402574CE2600133C6
:1006EC000F2B00F2A38001229A400C6804EA020549
:1006FC00AA42F4D14C68022C01D0122C10D1DE0885
:10070C00083650F826C003F00704A7000F24BC409D
:10071C002CEA040C0C69BC4044EA0C0440F826405A
:10072C0004685F000326BE40F64306EA040C4C68DE
:10073C0004F00304BC4044EA0C0404604C6804F16B
:10074C00FF3CBCF1010F03D9112C01D0122C10D19C
:10075C00846806EA040CCC68BC4044EA0C0484604F
:10076C00446824EA02024C68C4F300149C4014430D
:10077C004460C26816408A68BA403243C2604A6814
:10078C0012F0805FABD0002201922C4A546C44F4DE
:10079C0080445464526C02F480420192019A9C0889
:1007AC00A61C244A52F8267003F0030296000F226E
:1007BC00B24027EA0207224A90423FF45CAF02F5AE
:1007CC008062904222D002F58062904220D002F5E5
:1007DC00806290421ED002F5806290421CD002F5DD
:1007EC00806290421AD002F58062904218D002F5D5
:1007FC008062904216D002F58062904214D002F5CD
:10080C00806290423FF435AF0A2235E7012233E78C
:10081C00022231E703222FE704222DE705222BE7E2
:10082C00062229E7072227E7082225E702B0F0BCB9
:10083C007047704700380140003C014000380240CE
:10084C00000002400369194201D1002070470120C9
:10085C00704712B9090481617047816170470000CB
:10086C0010B582B000230193194B1A6C42F08052E0
:10087C001A641B6C03F080530193019B154B0122EE
:10088C001A60FFF777FE0446134B5B6813F4803F46
:10089C0008D1FFF76FFE001BB0F57A7FF4D9032067
:1008AC0002B010BD0D4B01221A60FFF763FE044627
:1008BC00094B5B6813F4003F07D1FFF75BFE001B8D
:1008CC00B0F57A7FF4D90320EAE70020E8E700BF0F
:1008DC000038024040000E420070004044000E42BE
:1008EC00002800F0BB8170B582B00446036813F099
:1008FC00010F3BD0A74B9B6803F00C03042B2CD0AF
:10090C00A44B9B6803F00C03082B21D06368B3F550
:10091C00803F4FD0B3F5A02F52D09E4B1A6822F4D3
:10092C0080321A601A6822F480221A606368002BE5
:10093C0050D0FFF71FFE0546964B1B6813F4003F83
:10094C0014D1FFF717FE401B6428F5D903208AE168
:10095C00904B5B6813F4800FD8D08E4B1B6813F44C
:10096C00003F03D06368002B00F07A81236813F0FA
:10097C00020F55D0874B9B6813F00C0F3ED0854B64
:10098C009B6803F00C03082B33D0E368002B68D072
:10099C00814B01221A60FFF7EDFD05467D4B1B686C
:1009AC0013F0020F54D1FFF7E5FD401B0228F5D9D7
:1009BC00032058E1774A136843F480331360B5E79A
:1009CC00744B1A6842F480221A601A6842F480321E
:1009DC001A60ABE7FFF7CEFD05466E4B1B6813F4B0
:1009EC00003FC3D0FFF7C6FD401B6428F5D9032098
:1009FC0039E1684B5B6813F4800FC6D1654B1B68FB
:100A0C0013F0020F04D0E368012B01D001202AE17E
:100A1C00604A136823F0F803216943EAC1031360A9
:100A2C00236813F0080F40D0636963B35B4B01225A
:100A3C001A60FFF79FFD0546564B5B6F13F0020FD4
:100A4C0033D1FFF797FD401B0228F5D903200AE1AB
:100A5C00504A136823F0F803216943EAC103136079
:100A6C00DEE74D4B00221A60FFF784FD0546494B2B
:100A7C001B6813F0020FD3D0FFF77CFD401B02283C
:100A8C00F5D90320EFE0454B00221A60FFF772FD09
:100A9C000546404B5B6F13F0020F06D0FFF76AFD63
:100AAC00401B0228F5D90320DDE0236813F0040F66
:100ABC0079D0384B1B6C13F0805F33D1002301933A
:100ACC00344B1A6C42F080521A641B6C03F0805346
:100ADC000193019B0125324B1B6813F4807F23D0BB
:100AEC00A368012B34D0052B38D02A4B1A6F22F077
:100AFC0001021A671A6F22F004021A67A368002B0E
:100B0C0036D0FFF737FD0646224B1B6F13F0020F52
:100B1C0048D1FFF72FFD801B41F288339842F3D95F
:100B2C000320A0E00025D6E71D4A136843F4807328
:100B3C001360FFF71FFD0646194B1B6813F4807FEB
:100B4C00CED1FFF717FD801B0228F5D903208AE0D0
:100B5C00104A136F43F001031367CFE70D4B1A6F65
:100B6C0042F004021A671A6F42F001021A67C5E7D5
:100B7C00FFF700FD0646074B1B6F13F0020F11D059
:100B8C00FFF7F8FC801B41F288339842F3D903201D
:100B9C0069E000BF0038024000004742800E474227
:100BAC0000700040E5B9A369002B5BD0304A926815
:100BBC0002F00C02082A58D0022B17D02D4B002221
:100BCC001A60FFF7D7FC0446294B1B6813F0007F13
:100BDC0042D0FFF7CFFC001B0228F5D9032042E0DE
:100BEC00234A136C23F080531364DCE7214B00225F
:100BFC001A60FFF7BFFC05461D4B1B6813F0007F06
:100C0C0006D0FFF7B7FC401B0228F5D903202AE0D9
:100C1C00E369226A1343626A43EA8213A26A5208A6
:100C2C00013A43EA0243E26A43EA0263104A536020
:100C3C00104B01221A60FFF79DFC04460C4B1B68FD
:100C4C0013F0007F06D1FFF795FC001B0228F5D9A5
:100C5C00032008E0002006E0002004E0012070479B
:100C6C00012000E0002002B070BD0120FBE700BFB6
:100C7C000038024060004742324B9B6803F00C0383
:100C8C00042B5CD0082B01D02F4870472DE9F04B7A
:100C9C002C4B5A6802F03F025B6813F4800F2BD088
:100CAC00284B5B68C3F388131E4600275C010025A4
:100CBC00E41A65EB0705A90141EA9461A001001B48
:100CCC0061EB0501CB0043EA5073C400A01943EB60
:100CDC0007014B0243EAD053440220461946002335
:100CEC00FFF77EFA174B5B68C3F3014301335B00DC
:100CFC00B0FBF3F0BDE8F08B124B5B68C3F38813C9
:100D0C001E4600275C010025E41A65EB0705A901C6
:100D1C0041EA9461A001001B61EB0501CB0043EAA1
:100D2C005073C400A01943EB07018B0243EA9053A4
:100D3C008402204619460023FFF752FAD2E70348F3
:100D4C00704700BF003802400024F40000127A0003
:100D5C00002800F09D8070B504464F4B1B6803F0D3
:100D6C000F038B4209D2CBB24B4A1370136803F0BA
:100D7C000F038B4201D0012070BD236813F0020FCA
:100D8C0017D013F0040F04D0444A936843F4E05393
:100D9C009360236813F0080F04D0404A936843F41F
:100DAC00604393603D4A936823F0F003A0680343CB
:100DBC0093600D46236813F0010F32D06368012B4A
:100DCC0021D09A1E012A25D9344A126812F0020F3A
:100DDC0060D032498A6822F0030213438B60FFF71C
:100DEC00C9FB06462D4B9B6803F00C036268B3EB02
:100DFC00820F16D0FFF7BEFB801B41F2883398425E
:100E0C00F0D90320B8E7254A126812F4003FE0D16C
:100E1C000120B1E7214A126812F0007FD9D10120DC
:100E2C00AAE71D4B1B6803F00F03AB4209D9EAB2CA
:100E3C00194B1A701B6803F00F03AB4201D0012051
:100E4C009AE7236813F0040F06D0144A936823F42E
:100E5C00E053E1680B439360236813F0080F07D04D
:100E6C000E4A936823F46043216943EAC1039360FB
:100E7C00FFF702FF094B9B68C3F30313084AD35CCB
:100E8C00D840084B18600020FFF72AFB002073E7BE
:100E9C000120704701206FE7003C024000380240FF
:100EAC002414000808000020014B1868704700BF8C
:100EBC000800002070B588B0002400941C4B1A6BFD
:100ECC0042F080021A631A6B02F080020092009AC0
:100EDC0001941A6B42F001021A631A6B02F00102C0
:100EEC000192019A02941A6B42F040021A631B6B36
:100EFC0003F040030293029B0E4D22464FF4C04177
:100F0C002846FFF7A6FC012603960494059403A932
:100F1C000948FFF7A7FB4FF4C043039304960594CD
:100F2C00069403A92846FFF79DFB08B070BD00BFCF
:100F3C000038024000180240000002400078704760
:100F4C0008B510B1012807D008BD00224FF480412C
:100F5C000548FFF77EFCF7E701224FF48041024879
:100F6C00FFF777FCF0E700BF0018024008B510B19E
:100F7C00012807D008BD00224FF400510548FFF7A7
:100F8C0068FCF7E701224FF400510248FFF761FCBF
:100F9C00F0E700BF0018024010B50446037A032B9B
:100FAC000AD8DFE803F0022330100023037001217C
:100FBC001E48FFF747FC00B910BD03232372FFF74F
:100FCC00D9FA6060F8E7FFF7D5FA63680533984201
:100FDC00F2D301211548FFF735FC18B10123237218
:100FEC002370E9E7002323722370E5E701210170E8
:100FFC000E48FFF727FC0028DED102232372FFF7EF
:10100C00B9FA6060D8E7FFF7B5FA63680533984220
:10101C00D2D301210548FFF715FC18B10123237227
:10102C002370C9E7002323722370C5E70000024038
:10103C0010B504464278037803BB52B1012A1FD184
:10104C000846FFF77BFFA0B90123237000236370D0
:10105C0016E00846FFF772FF18B90023237063707F
:10106C000EE00120FFF76CFF002323700123637057
:10107C0006E0002323700123637001E0012B00D0F4
:10108C0010BD4AB1012AFBD10846FFF757FF80B1CA
:10109C00012323706370F3E70846FFF74FFF20B975
:1010AC000123237000236370EAE70123237063702C
:1010BC00E6E7FFF745FF002323706370E0E70000CD
:1010CC0038B50446064D01212846FFF7BBFB2072BC
:1010DC0001212846FFF7B6FB20700023636038BD62
:1010EC000000024010B504460023037001210248A1
:1010FC00FFF7A8FB607010BD0000024010B504465D
:10110C0000230370FFF736FA606010BD10B504467B
:10111C00037813B1012B0FD010BDFFF72BFA6368C6
:10112C0003F5FA739842F7D9FFF724FA60600120AF
:10113C002070FFF71BFFEFE7FFF71CFA636803F55E
:10114C00FA739842E8D9FFF715FA60600020207016
:10115C00FFF70CFFE0E7FEE700B595B00021019129
:10116C002F4B1A6C42F080521A641B6C03F08053A4
:10117C000193019B02912B4B1A6842F440421A6076
:10118C001B6803F440430293029B012308934FF422
:10119C008033099302220E924FF480030F930423A1
:1011AC001093B42111911292139308A8FFF798FB96
:1011BC0038BBFFF755FB48BB0F2303930223049363
:1011CC00002305934FF4A05306934FF480530793D9
:1011DC00052103A8FFF7BCFDE8B9FFF765FE124B2C
:1011EC00A3FB00308009FFF711FA0420FFF724FA63
:1011FC00002211464FF0FF30FFF7D4F915B05DF81F
:10120C0004FB4FF4C7710948FFF7A5FF40F2951195
:10121C000648FFF7A0FF40F2A3110448FFF79BFF1D
:10122C000038024000700040D34D62103C1400089E
:10123C0000B587B002A8FFF743FF05A8FFF752FFE0
:10124C006846FFF75BFFFFF76FF9FFF785FFFFF7C6
:10125C0031FE02A905A8FFF7EBFE02A8FFF79CFEE2
:10126C006846FFF753FFF4E710B582B000240094F2
:10127C00214B5A6C42F480425A645A6C02F48042FC
:10128C000092009A01941A6C42F080521A641B6C02
:10129C0003F080530193019B0320FFF771F9224661
:1012AC0021466FF00B00FFF77DF9224621466FF0C7
:1012BC000A00FFF777F9224621466FF00900FFF785
:1012CC0071F9224621466FF00400FFF76BF92246B4
:1012DC0021466FF00300FFF765F9224621466FF0B7
:1012EC000100FFF75FF9224621464FF0FF30FFF770
:1012FC0059F902B010BD00BF003802407047FEE73C
:10130C00FEE7FEE7FEE770477047704708B5FFF74A
:10131C0025F9FFF7A2F908BD0F49D1F8883043F43D
:10132C007003C1F888300D4B1A6842F001021A6044
:10133C00002098601A6822F0847222F480321A60BD
:10134C00074A5A601A6822F480221A60D8604FF05B
:10135C0000638B60704700BF00ED00E00038024076
:10136C0010300024DFF834D0002103E00C4B5B5824
:10137C00435004310B480C4B42189A42F6D30B4A9B
:10138C0002E0002342F8043B094B9A42F9D3FFF7E1
:10139C00C3FF00F011F8FFF74BFF7047000003206C
:1013AC005C140008000000200C0000200C00002041
:1013BC002C000020FEE7000070B50D4E0D4CA41B58
:1013CC00A4100025A54209D10B4E0C4C00F018F8C6
:1013DC00A41BA4100025A54205D170BD56F82530DC
:1013EC0098470135EEE756F8253098470135F2E776
:1013FC00541400085414000854140008581400081D
:10140C00F8B500BFF8BC08BC9E467047F8B500BFE5
:08141C00F8BC08BC9E467047B5
:101424000000000000000000010203040607080990
:1014340000000000010203042E2E2F5372632F6D4F
:0814440061696E2E63000000D7
:08144C00D0EDFF7F010000005C
:04145400D1010008BA
:04145800AD010008DA
:0C145C0001000000100000000024F4005B
:04000005080013716B
:00000001FF
